{
  "abi": [
    {
      "type": "constructor",
      "inputs": [
        {
          "name": "_settlement",
          "type": "address",
          "internalType": "address"
        }
      ],
      "stateMutability": "nonpayable"
    },
    {
      "type": "function",
      "name": "TASK_EXPIRY",
      "inputs": [],
      "outputs": [
        {
          "name": "",
          "type": "uint32",
          "internalType": "uint32"
        }
      ],
      "stateMutability": "view"
    },
    {
      "type": "function",
      "name": "createTask",
      "inputs": [
        {
          "name": "chainId",
          "type": "uint256",
          "internalType": "uint256"
        },
        {
          "name": "collection",
          "type": "address",
          "internalType": "address"
        },
        {
          "name": "tokenId",
          "type": "uint256",
          "internalType": "uint256"
        },
        {
          "name": "owner",
          "type": "address",
          "internalType": "address"
        },
        {
          "name": "checkedBlock",
          "type": "uint64",
          "internalType": "uint64"
        },
        {
          "name": "standard",
          "type": "uint8",
          "internalType": "enum NftOwnershipTask.Standard"
        }
      ],
      "outputs": [
        {
          "name": "taskId",
          "type": "bytes32",
          "internalType": "bytes32"
        }
      ],
      "stateMutability": "nonpayable"
    },
    {
      "type": "function",
      "name": "getTaskStatus",
      "inputs": [
        {
          "name": "taskId",
          "type": "bytes32",
          "internalType": "bytes32"
        }
      ],
      "outputs": [
        {
          "name": "",
          "type": "uint8",
          "internalType": "enum NftOwnershipTask.TaskStatus"
        }
      ],
      "stateMutability": "view"
    },
    {
      "type": "function",
      "name": "nonce",
      "inputs": [],
      "outputs": [
        {
          "name": "",
          "type": "uint256",
          "internalType": "uint256"
        }
      ],
      "stateMutability": "view"
    },
    {
      "type": "function",
      "name": "respondTask",
      "inputs": [
        {
          "name": "taskId",
          "type": "bytes32",
          "internalType": "bytes32"
        },
        {
          "name": "payload",
          "type": "bytes",
          "internalType": "bytes"
        },
        {
          "name": "epoch",
          "type": "uint48",
          "internalType": "uint48"
        },
        {
          "name": "proof",
          "type": "bytes",
          "internalType": "bytes"
        }
      ],
      "outputs": [],
      "stateMutability": "nonpayable"
    },
    {
      "type": "function",
      "name": "responses",
      "inputs": [
        {
          "name": "",
          "type": "bytes32",
          "internalType": "bytes32"
        }
      ],
      "outputs": [
        {
          "name": "answeredAt",
          "type": "uint48",
          "internalType": "uint48"
        },
        {
          "name": "isOwner",
          "type": "bool",
          "internalType": "bool"
        },
        {
          "name": "ownerAtBlock",
          "type": "address",
          "internalType": "address"
        },
        {
          "name": "observedBlock",
          "type": "uint64",
          "internalType": "uint64"
        }
      ],
      "stateMutability": "view"
    },
    {
      "type": "function",
      "name": "settlement",
      "inputs": [],
      "outputs": [
        {
          "name": "",
          "type": "address",
          "internalType": "contract ISettlement"
        }
      ],
      "stateMutability": "view"
    },
    {
      "type": "function",
      "name": "tasks",
      "inputs": [
        {
          "name": "",
          "type": "bytes32",
          "internalType": "bytes32"
        }
      ],
      "outputs": [
        {
          "name": "chainId",
          "type": "uint256",
          "internalType": "uint256"
        },
        {
          "name": "collection",
          "type": "address",
          "internalType": "address"
        },
        {
          "name": "tokenId",
          "type": "uint256",
          "internalType": "uint256"
        },
        {
          "name": "owner",
          "type": "address",
          "internalType": "address"
        },
        {
          "name": "checkedBlock",
          "type": "uint64",
          "internalType": "uint64"
        },
        {
          "name": "standard",
          "type": "uint8",
          "internalType": "enum NftOwnershipTask.Standard"
        },
        {
          "name": "nonce",
          "type": "uint256",
          "internalType": "uint256"
        },
        {
          "name": "createdAt",
          "type": "uint48",
          "internalType": "uint48"
        }
      ],
      "stateMutability": "view"
    },
    {
      "type": "event",
      "name": "CreateTask",
      "inputs": [
        {
          "name": "taskId",
          "type": "bytes32",
          "indexed": true,
          "internalType": "bytes32"
        },
        {
          "name": "req",
          "type": "tuple",
          "indexed": false,
          "internalType": "struct NftOwnershipTask.Request",
          "components": [
            {
              "name": "chainId",
              "type": "uint256",
              "internalType": "uint256"
            },
            {
              "name": "collection",
              "type": "address",
              "internalType": "address"
            },
            {
              "name": "tokenId",
              "type": "uint256",
              "internalType": "uint256"
            },
            {
              "name": "owner",
              "type": "address",
              "internalType": "address"
            },
            {
              "name": "checkedBlock",
              "type": "uint64",
              "internalType": "uint64"
            },
            {
              "name": "standard",
              "type": "uint8",
              "internalType": "enum NftOwnershipTask.Standard"
            },
            {
              "name": "nonce",
              "type": "uint256",
              "internalType": "uint256"
            },
            {
              "name": "createdAt",
              "type": "uint48",
              "internalType": "uint48"
            }
          ]
        }
      ],
      "anonymous": false
    },
    {
      "type": "event",
      "name": "RespondTask",
      "inputs": [
        {
          "name": "taskId",
          "type": "bytes32",
          "indexed": true,
          "internalType": "bytes32"
        },
        {
          "name": "response",
          "type": "tuple",
          "indexed": false,
          "internalType": "struct NftOwnershipTask.Response",
          "components": [
            {
              "name": "answeredAt",
              "type": "uint48",
              "internalType": "uint48"
            },
            {
              "name": "isOwner",
              "type": "bool",
              "internalType": "bool"
            },
            {
              "name": "ownerAtBlock",
              "type": "address",
              "internalType": "address"
            },
            {
              "name": "observedBlock",
              "type": "uint64",
              "internalType": "uint64"
            }
          ]
        }
      ],
      "anonymous": false
    },
    {
      "type": "event",
      "name": "TaskCreated",
      "inputs": [
        {
          "name": "taskId",
          "type": "bytes32",
          "indexed": true,
          "internalType": "bytes32"
        },
        {
          "name": "req",
          "type": "tuple",
          "indexed": false,
          "internalType": "struct NftOwnershipTask.Request",
          "components": [
            {
              "name": "chainId",
              "type": "uint256",
              "internalType": "uint256"
            },
            {
              "name": "collection",
              "type": "address",
              "internalType": "address"
            },
            {
              "name": "tokenId",
              "type": "uint256",
              "internalType": "uint256"
            },
            {
              "name": "owner",
              "type": "address",
              "internalType": "address"
            },
            {
              "name": "checkedBlock",
              "type": "uint64",
              "internalType": "uint64"
            },
            {
              "name": "standard",
              "type": "uint8",
              "internalType": "enum NftOwnershipTask.Standard"
            },
            {
              "name": "nonce",
              "type": "uint256",
              "internalType": "uint256"
            },
            {
              "name": "createdAt",
              "type": "uint48",
              "internalType": "uint48"
            }
          ]
        }
      ],
      "anonymous": false
    },
    {
      "type": "error",
      "name": "AlreadyResponded",
      "inputs": []
    },
    {
      "type": "error",
      "name": "InvalidQuorumSignature",
      "inputs": []
    },
    {
      "type": "error",
      "name": "InvalidVerifyingEpoch",
      "inputs": []
    }
  ],
  "bytecode": {
    "object": "0x608034606f57601f610bc238819003918201601f19168301916001600160401b03831184841017607357808492602094604052833981010312606f57516001600160a01b03811690819003606f575f80546001600160a01b031916919091179055604051610b3a90816100888239f35b5f80fd5b634e487b7160e01b5f52604160045260245ffdfe6080806040526004361015610012575f80fd5b5f3560e01c908163240697b614610940575080632bf6cc79146109115780634017c17f146106ac578063511606301461068557806372164a6c1461061f578063affed0e014610602578063c2ea2bf3146101185763e579f50014610074575f80fd5b34610114576020366003190112610114576004355f52600260205261010060405f2080549060018060a01b0360018201541690610108600282015460038301549065ffffffffffff6005600486015495015416946040519687526020870152604086015260018060a01b03811660608601526001600160401b038160a01c16608086015260ff60a086019160e01c16610987565b60c083015260e0820152f35b5f80fd5b34610114576080366003190112610114576004356024356001600160401b0381116101145761014b90369060040161095a565b906044359165ffffffffffff8316809303610114576064356001600160401b0381116101145761017f90369060040161095a565b855f52600360205265ffffffffffff60405f2054166105f3575f546001600160a01b03166001860165ffffffffffff81116105df5765ffffffffffff60405191635485b54960e01b8352166004820152602081602481855afa9081156104ee575f9161059e575b5065ffffffffffff811615159081610582575b5061057357604051602081019088825260408082015261022f8161022160608201898b610ac0565b03601f198101835282610a23565b5190206040519060208201526020815261024a604082610a23565b60405163721bc76960e11b81526004810188905296602088602481865afa9788156104ee575f98610535575b506040516303b0d7b160e31b81526004810182905294602086602481875afa9586156104ee575f966104f9575b509161032c6102f89260ff959461031560209c8d99604051936102c68c86610a23565b5f8552601f198c01368d87013760405163acaa226960e01b815260c060048201529c8d9b8c9a8b9a60c48c0190610ae0565b941660248a01526044890152878303600319016064890152610ac0565b9160848501526003198483030160a4850152610ae0565b03915afa9081156104ee575f916104b8575b50156104a95781606091810103126101145780359081151580920361011457828101356001600160a01b03811691908290036101145760400135906001600160401b038216809203610114576040519160808301918383106001600160401b03841117610495577f0bf426223476d58f384d98805bf2570c769b82ec6e2ccda8886bbf5e3c09f98e956080956001600160401b039460405265ffffffffffff421686528186019081526040860192835260608601938452885f5260038252600165ffffffffffff60405f209751169665ffffffffffff881665ffffffffffff1982541617815582511515815466ff0000000000006701000000000000008560d81b03885160381b169260301b169065ffffffffffff64ffffffffff60d81b011617178155018585511686198254161790556040519586525115159085015260018060a01b03905116604084015251166060820152a2005b634e487b7160e01b5f52604160045260245ffd5b630d08ee4760e31b5f5260045ffd5b90508381813d83116104e7575b6104cf8183610a23565b8101031261011457518015158103610114578561033e565b503d6104c5565b6040513d5f823e3d90fd5b93929095506020843d60201161052d575b8161051760209383610a23565b810103126101145792519491929161032c6102a3565b3d915061050a565b9097506020813d60201161056b575b8161055160209383610a23565b81010312610114575160ff81168103610114579689610276565b3d9150610544565b633ec1610f60e11b5f5260045ffd5b65ffffffffffff915061059490610994565b16421015886101f9565b90506020813d6020116105d7575b816105b960209383610a23565b81010312610114575165ffffffffffff8116810361011457886101e6565b3d91506105ac565b634e487b7160e01b5f52601160045260245ffd5b63251aba6960e11b5f5260045ffd5b34610114575f366003190112610114576020600154604051908152f35b34610114576020366003190112610114576004355f526003602052608060405f206001600160401b0360018254920154166040519165ffffffffffff8116835260ff8160301c161515602084015260018060a01b039060381c1660408301526060820152f35b34610114575f366003190112610114575f546040516001600160a01b039091168152602090f35b346101145760c0366003190112610114576004356024356001600160a01b03811690819003610114576044356064356001600160a01b0381169081900361011457608435936001600160401b0385168095036101145760a43594600286101561011457600154915f1983146105df57600183016001556040519161010083018381106001600160401b03821117610495576040528183526020830191878352604084019787895260608501958787526107b68b608088019580875260a089019d8e5260c089019a848c5260e08a019c8d65ffffffffffff42169052604051966020880198468a5260408901526060880152608087015260a086015260c085015260e0840190610987565b61010082015261010081526107cd61012082610a23565b5190205f8181526002602081905260409091208551815593516001850180546001600160a01b03199081166001600160a01b03938416179091559951858301559551600385018054909a1696169590951780895591519851989097949091908910156108fd5765ffffffffffff88977f7a37329df301808b8ac3daca67b67243924444f5a64e02bb10a901c69579d63f976108f297839560059560209e60ff60e01b9060e01b16916001600160401b0360a01b9060a01b169068ffffffffffffffffff60a01b19161717905551600486015551169201911665ffffffffffff19825416179055837f313874bd5b1cda73bb443bd62cf625061ba13ebe53f553359ff50ce05cacc5a8604051806108e38582610a44565b0390a260405191829182610a44565b0390a2604051908152f35b634e487b7160e01b5f52602160045260245ffd5b346101145760203660031901126101145761092d6004356109b1565b60405160048210156108fd576020918152f35b34610114575f3660031901126101145780612ee060209252f35b9181601f84011215610114578235916001600160401b038311610114576020838186019501011161011457565b9060028210156108fd5752565b65ffffffffffff612ee09116019065ffffffffffff82116105df57565b805f52600360205265ffffffffffff60405f205416610a1d57805f52600260205265ffffffffffff600560405f2001541615610a17575f52600260205265ffffffffffff610a0781600560405f20015416610994565b164211610a12575f90565b600290565b50600390565b50600190565b90601f801991011681019081106001600160401b0382111761049557604052565b91909160e065ffffffffffff816101008401958051855260018060a01b0360208201511660208601526040810151604086015260018060a01b0360608201511660608601526001600160401b036080820151166080860152610aae60a082015160a0870190610987565b60c081015160c0860152015116910152565b908060209392818452848401375f828201840152601f01601f1916010190565b805180835260209291819084018484015e5f828201840152601f01601f191601019056fea264697066735822122022c9bc1b3639e56afdd215d01c9602a6b071df5f40a366289eaad65834ab234564736f6c634300081c0033",
    "linkReferences": {}
  },
  "methodIdentifiers": {
    "TASK_EXPIRY()": "240697b6",
    "createTask(uint256,address,uint256,address,uint64,uint8)": "4017c17f",
    "getTaskStatus(bytes32)": "2bf6cc79",
    "nonce()": "affed0e0",
    "respondTask(bytes32,bytes,uint48,bytes)": "c2ea2bf3",
    "responses(bytes32)": "72164a6c",
    "settlement()": "51160630",
    "tasks(bytes32)": "e579f500"
  },
  "id": 187
}